:100000000C9462000C948A000C948A000C948A0070
:100010000C948A000C948A000C948A000C948A0038
:100020000C948A000C948A000C948A000C948A0028
:100030000C948A000C94BB030C948A000C948A00E4
:100040000C9471030C948A000C948A000C948A001E
:100050000C948A000C948A000C948A000C948A00F8
:100060000C948A000C948A000000000024002700F1
:100070002A0000000000250028002B0000000000DE
:1000800023002600290004040404040404040202DA
:100090000202020203030303030301020408102007
:1000A0004080010204081020010204081020000012
:1000B0000008000201000003040700000000000027
:1000C0000000F10411241FBECFEFD8E0DEBFCDBF8A
:1000D00011E0A0E0B1E0E4E7FAE002C005900D9283
:1000E000A636B107D9F721E0A6E6B1E001C01D921E
:1000F000A139B207E1F710E0C2E6D0E004C02197D1
:10010000FE010E943205C136D107C9F70E94E20301
:100110000C9438050C940000833081F028F4813071
:1001200099F08230A9F008958730A9F08830C9F09D
:100130008430B1F4809180008F7D03C08091800075
:100140008F7780938000089584B58F7784BD08955C
:1001500084B58F7DFBCF8091B0008F778093B00006
:1001600008958091B0008F7DF9CFCF93DF93282F32
:1001700030E0F901E255FF4F8491F901E656FF4F57
:10018000D491F901EA57FF4FC491CC23A1F081111A
:100190000E948C00EC2FF0E0EE0FFF1FE458FF4FA1
:1001A000A591B491EC91ED2381E090E009F480E019
:1001B000DF91CF91089580E090E0FACF1F93CF9325
:1001C000DF93282F30E0F901E255FF4F8491F901C8
:1001D000E656FF4FD491F901EA57FF4FC491CC2363
:1001E000A9F0162F81110E948C00EC2FF0E0EE0F89
:1001F000FF1FEE58FF4FA591B4918FB7F894EC9183
:10020000111108C0D095DE23DC938FBFDF91CF9111
:100210001F910895DE2BF8CFCF93DF9390E0FC0180
:10022000E656FF4F24918A579F4FFC018491882303
:10023000C9F090E0880F991FFC01E859FF4FA59184
:10024000B491FC01EE58FF4FC591D49161110DC0DE
:100250009FB7F8948C91209582238C9388812823D2
:1002600028839FBFDF91CF910895623051F49FB7EB
:10027000F8943C91822F809583238C93E8812E2BD8
:10028000EFCF8FB7F894EC912E2B2C938FBFEACF42
:10029000AF92BF92CF92DF92EF92FF920F931F9394
:1002A000CF93DF936C017B018B01040F151FEB01D2
:1002B0005E01AE18BF08C017D10759F06991D60189
:1002C000ED91FC910190F081E02DC6010995892BFB
:1002D00079F7C501DF91CF911F910F91FF90EF90BA
:1002E000DF90CF90BF90AF9008950895089590E06B
:1002F00080E00895FC0101900020E9F73197AF01FB
:10030000481B590BBC0189E791E00C9448018F927E
:100310009F92AF92BF920F931F93CF93DF93CDB76E
:10032000DEB7A1970FB6F894DEBF0FBECDBF19A2FE
:10033000423008F44AE08E010F5D1F4F842E912C4D
:10034000B12CA12CA50194010E941005E62FB90142
:10035000CA01EA30F4F4E05DD801EE938D01232B5D
:10036000242B252B79F790E080E0109719F0CD0130
:100370000E947A01A1960FB6F894DEBF0FBECDBFE2
:10038000DF91CF911F910F91BF90AF909F908F9071
:100390000895E95CE1CFCF93DF93EC0160E08E81BB
:1003A0000E94DE0061E08E810E94DE0060E08E81AE
:1003B0000E94DE008BE891E00197F1F7DF91CF9189
:1003C0000895CF92DF92EF92FF920F931F93CF93F6
:1003D000DF936C017C0187E0E80EF11CD0E0C0E007
:1003E000062F10E0B8010C2E02C0759567950A948F
:1003F000E2F76170F70181917F010E94DE00219692
:10040000C430D10579F7C601DF91CF911F910F91CB
:10041000FF90EF90DF90CF900C94CB01CF92DF92C2
:10042000EF92FF920F931F93CF93DF93EC01F62E81
:10043000642F8C810E94DE008D818F3F19F060E077
:100440000E94DE000F2D10E08F8584FF25C06E0115
:1004500087E0C80ED11CF12CE12CB8010E2C02C093
:10046000759567950A94E2F76170F60181916F01C5
:100470000E94DE00FFEFEF1AFF0A88E0E816F104A1
:1004800061F7CE01DF91CF911F910F91FF90EF9017
:10049000DF90CF900C94CB01B80184E075956795FF
:1004A0008A95E1F7CE010E94E1016F2DCE01DF9127
:1004B000CF911F910F91FF90EF90DF90CF900C9410
:1004C000E10140E0682F89E791E00C940E02CF93A0
:1004D000DF93613029F090918801986090938801B2
:1004E00060938C0110928D0190E490938E01809323
:1004F0008F01805C8093900161E080917D010E947A
:100500000C0180917E018F3F19F061E00E940C0187
:1005100061E080917F010E940C01C9E7D1E09E015A
:10052000295731408091880184FD0BC084E090E020
:1005300021962817390744F461E08E810E940C014E
:10054000EECF88E090E0F4CF8BE39DE00197F1F7E8
:1005500060E080917D010E94DE0060E080917F017B
:100560000E94DE0080917E018F3F19F060E00E94C2
:10057000DE008091880184FD39C063E089E791E065
:100580000E94E101CBE4D6E4CE010197F1F763E0EC
:1005900089E791E00E94E1012197F1F763E089E7A3
:1005A00091E00E94E10183E592E00197F1F762E0BA
:1005B00089E791E00E94E1018091880180620E94B8
:1005C000610284E0809389018CE00E94610281E0F5
:1005D0000E9461028BE39FE10197F1F782E0809333
:1005E0008A0186E0DF91CF910C94610280620E94C3
:1005F00061028BE496E40197F1F7809188018062B3
:100600000E94610283E592E00197F1F780918801F1
:1006100080620E946102D0CF90918C01691710F026
:100620006FEF690FE62FF0E0E758FE4F9489890FCE
:1006300080680C94610241E00E940E0281E090E02B
:100640000895CF92DF92EF92FF926B017C0141E01F
:100650006DE289E791E00E940E0266277727CB01C1
:100660006C197D098E099F094AE00E948701019655
:10067000FF90EF90DF90CF900895CF93DF9380911C
:100680006E0190916F010197F9F4C0916801D091CA
:1006900069012196D0936901C093680161E08EE001
:1006A0000E940C03BE01DD0F880B990B97FF08C059
:1006B0000E9421038CE191E0DF91CF910C947A01AB
:1006C0004AE00E948701F6CFDF91CF910895BC01E7
:1006D000990F880B990B97FD0C9421034AE00C9419
:1006E00087011F920F920FB60F9211242F933F9301
:1006F0008F939F93AF93BF938091750190917601F3
:10070000A0917701B09178013091740123E0230F1B
:100710002D3758F50196A11DB11D209374018093CA
:10072000750190937601A0937701B0937801809141
:10073000700190917101A0917201B09173010196C5
:10074000A11DB11D8093700190937101A09372015E
:10075000B0937301BF91AF919F918F913F912F9172
:100760000F900FBE0F901F90189526E8230F02964A
:10077000A11DB11DD2CF1F920F920FB60F9211245F
:100780002F933F934F935F936F937F938F939F9399
:10079000AF93BF93EF93FF93E0910001F0910101BC
:1007A0000995FF91EF91BF91AF919F918F917F91AB
:1007B0006F915F914F913F912F910F900FBE0F90CE
:1007C0001F901895789484B5826084BD84B581604B
:1007D00084BD85B5826085BD85B5816085BD80910C
:1007E0006E00816080936E00109281008091810084
:1007F000826080938100809181008160809381007C
:10080000809180008160809380008091B10084603D
:100810008093B1008091B00081608093B00080919E
:100820007A00846080937A0080917A00826080935D
:100830007A0080917A00816080937A0080917A00BA
:10084000806880937A001092C10064E084E10E9485
:10085000670260E084E00E940C0162E082E00E9496
:100860000C0180E1809381001092800088EA91E67B
:10087000909387008093860084E1809381008DE3CC
:1008800093E0909301018093000181E080936F00D9
:100890000E9461028BE39FE10197F1F760E080E045
:1008A0000E940C038EE091E00E947A0161E080E0FA
:1008B0000E940C038EE191E00E947A0162E080E0E8
:1008C0000E940C0388E291E00E947A0186E0D82E13
:1008D00000E010E0EE24E394F12C82E00E94B500E9
:1008E000892B61F463E080E00E940C038CE391E0CB
:1008F0000E947A01F0926F01E0926E0180916E0188
:1009000090916F01019709F065C084E00E94B500E5
:1009100081309105F1F420916C0130916D01232B10
:10092000C1F4C0916A01D0916B012196D0936B0103
:10093000C0936A0190936D0180936C0160E08EE03A
:100940000E940C03CE010E9467038CE191E00E949B
:100950007A0184E00E94B500892B51F480916C01EA
:1009600090916D01019721F410926D0110926C012C
:1009700080916801909169010A9761F580916A01FF
:1009800090916B01D89EE001D99ED00D1124D09397
:100990006701C093660110926F0110926E0162E0D0
:1009A0008EE00E940C03CE010E9467038CE191E06F
:1009B0000E947A0163E080E00E940C0381E591E0EF
:1009C0000E947A0110926B0110926A0110926901E3
:1009D000109268010115110509F47FCF0E940000F3
:1009E0007CCFE9E7F1E01382128286E091E0918307
:1009F00080838DE084838FEF85838CE086838BE01A
:100A000087838AE0808789E0818788E082871386F0
:100A1000148615861686178661E080E10C946702BD
:100A2000A1E21A2EAA1BBB1BFD010DC0AA1FBB1FF2
:100A3000EE1FFF1FA217B307E407F50720F0A21B64
:100A4000B30BE40BF50B661F771F881F991F1A94D1
:100A500069F760957095809590959B01AC01BD01FB
:100A6000CF010895EE0FFF1F0590F491E02D09943A
:040A7000F894FFCF28
:100A74007501000000001B0348017701760148520C
:100A84002063757272656E746C79203A2000546923
:100A94006D652873293A2000485220706572206DD4
:100AA400696E757465203A20302E30005761697480
:100AB400212043616C63756C6174696E67204852D0
:100AC40000507265737320427574746F6E20616791
:060AD40061696E2E0000B6
:00000001FF
